{
  "contractName": "Faucet",
  "abi": [
    {
      "inputs": [
        {
          "internalType": "uint256",
          "name": "",
          "type": "uint256"
        }
      ],
      "name": "funders",
      "outputs": [
        {
          "internalType": "address",
          "name": "",
          "type": "address"
        }
      ],
      "stateMutability": "view",
      "type": "function",
      "constant": true
    },
    {
      "inputs": [],
      "name": "numOfFunders",
      "outputs": [
        {
          "internalType": "uint256",
          "name": "",
          "type": "uint256"
        }
      ],
      "stateMutability": "view",
      "type": "function",
      "constant": true
    },
    {
      "inputs": [],
      "name": "owner",
      "outputs": [
        {
          "internalType": "address",
          "name": "",
          "type": "address"
        }
      ],
      "stateMutability": "view",
      "type": "function",
      "constant": true
    },
    {
      "inputs": [],
      "name": "testNum",
      "outputs": [
        {
          "internalType": "uint256",
          "name": "",
          "type": "uint256"
        }
      ],
      "stateMutability": "view",
      "type": "function",
      "constant": true
    },
    {
      "inputs": [
        {
          "internalType": "address",
          "name": "newOwner",
          "type": "address"
        }
      ],
      "name": "transferOwnership",
      "outputs": [],
      "stateMutability": "nonpayable",
      "type": "function"
    },
    {
      "stateMutability": "payable",
      "type": "receive",
      "payable": true
    },
    {
      "inputs": [],
      "name": "test1",
      "outputs": [],
      "stateMutability": "nonpayable",
      "type": "function"
    },
    {
      "inputs": [],
      "name": "emitLog",
      "outputs": [
        {
          "internalType": "bytes32",
          "name": "",
          "type": "bytes32"
        }
      ],
      "stateMutability": "pure",
      "type": "function",
      "constant": true
    },
    {
      "inputs": [],
      "name": "addFunds",
      "outputs": [],
      "stateMutability": "payable",
      "type": "function",
      "payable": true
    },
    {
      "inputs": [],
      "name": "addFundsMapping",
      "outputs": [],
      "stateMutability": "payable",
      "type": "function",
      "payable": true
    },
    {
      "inputs": [],
      "name": "getAllFunders",
      "outputs": [
        {
          "internalType": "address[]",
          "name": "",
          "type": "address[]"
        }
      ],
      "stateMutability": "view",
      "type": "function",
      "constant": true
    },
    {
      "inputs": [],
      "name": "getAllFundersMapping",
      "outputs": [
        {
          "internalType": "address[]",
          "name": "",
          "type": "address[]"
        }
      ],
      "stateMutability": "view",
      "type": "function",
      "constant": true
    },
    {
      "inputs": [
        {
          "internalType": "uint8",
          "name": "index",
          "type": "uint8"
        }
      ],
      "name": "getFunderAtIndex",
      "outputs": [
        {
          "internalType": "address",
          "name": "",
          "type": "address"
        }
      ],
      "stateMutability": "view",
      "type": "function",
      "constant": true
    },
    {
      "inputs": [
        {
          "internalType": "uint8",
          "name": "index",
          "type": "uint8"
        }
      ],
      "name": "getFunderAtIndexMapping",
      "outputs": [
        {
          "internalType": "address",
          "name": "",
          "type": "address"
        }
      ],
      "stateMutability": "view",
      "type": "function",
      "constant": true
    },
    {
      "inputs": [
        {
          "internalType": "uint256",
          "name": "withdrawAmount",
          "type": "uint256"
        }
      ],
      "name": "withdraw",
      "outputs": [],
      "stateMutability": "nonpayable",
      "type": "function"
    }
  ],
  "bytecode": "0x608060405234801561001057600080fd5b50336000806101000a81548173ffffffffffffffffffffffffffffffffffffffff021916908373ffffffffffffffffffffffffffffffffffffffff1602179055506103e8600181905550610e0e806100696000396000f3fe6080604052600436106100e15760003560e01c8063a26759cb1161007f578063d704b03911610059578063d704b03914610267578063dc0d3dff14610292578063f2fde38b146102cf578063f42c13bf146102f8576100e8565b8063a26759cb14610207578063ae28f1ed14610211578063af7f2c9b1461023c576100e8565b80635df87bd6116100bb5780635df87bd61461015d5780636b59084d1461019a5780636fbbb55d146101b15780638da5cb5b146101dc576100e8565b80630a93cf33146100ed5780632e1a7d4d1461012a5780635503252c14610153576100e8565b366100e857005b600080fd5b3480156100f957600080fd5b50610114600480360381019061010f9190610970565b610323565b60405161012191906109de565b60405180910390f35b34801561013657600080fd5b50610151600480360381019061014c9190610a2f565b610356565b005b61015b6103ed565b005b34801561016957600080fd5b50610184600480360381019061017f9190610970565b61050d565b60405161019191906109de565b60405180910390f35b3480156101a657600080fd5b506101af61054d565b005b3480156101bd57600080fd5b506101c66105dd565b6040516101d39190610b1a565b60405180910390f35b3480156101e857600080fd5b506101f161066b565b6040516101fe91906109de565b60405180910390f35b61020f61068f565b005b34801561021d57600080fd5b506102266106f4565b6040516102339190610b4b565b60405180910390f35b34801561024857600080fd5b506102516106fa565b60405161025e9190610b4b565b60405180910390f35b34801561027357600080fd5b5061027c610700565b6040516102899190610b1a565b60405180910390f35b34801561029e57600080fd5b506102b960048036038101906102b49190610a2f565b6107fa565b6040516102c691906109de565b60405180910390f35b3480156102db57600080fd5b506102f660048036038101906102f19190610b92565b610839565b005b34801561030457600080fd5b5061030d61090a565b60405161031a9190610bd8565b60405180910390f35b60008061032e6105dd565b9050808360ff168151811061034657610345610bf3565b5b6020026020010151915050919050565b80670de0b6b3a76400008111156103a2576040517f08c379a000000000000000000000000000000000000000000000000000000000815260040161039990610c7f565b60405180910390fd5b3373ffffffffffffffffffffffffffffffffffffffff166108fc839081150290604051600060405180830381858888f193505050501580156103e8573d6000803e3d6000fd5b505050565b6000339050600460008273ffffffffffffffffffffffffffffffffffffffff1673ffffffffffffffffffffffffffffffffffffffff16815260200190815260200160002060009054906101000a900460ff1661050a5760006003600081548092919061045890610cce565b9190505590506001600460008473ffffffffffffffffffffffffffffffffffffffff1673ffffffffffffffffffffffffffffffffffffffff16815260200190815260200160002060006101000a81548160ff021916908315150217905550816005600083815260200190815260200160002060006101000a81548173ffffffffffffffffffffffffffffffffffffffff021916908373ffffffffffffffffffffffffffffffffffffffff160217905550505b50565b6000600560008360ff16815260200190815260200160002060009054906101000a900473ffffffffffffffffffffffffffffffffffffffff169050919050565b60008054906101000a900473ffffffffffffffffffffffffffffffffffffffff1673ffffffffffffffffffffffffffffffffffffffff163373ffffffffffffffffffffffffffffffffffffffff16146105db576040517f08c379a00000000000000000000000000000000000000000000000000000000081526004016105d290610d89565b60405180910390fd5b565b6060600280548060200260200160405190810160405280929190818152602001828054801561066157602002820191906000526020600020905b8160009054906101000a900473ffffffffffffffffffffffffffffffffffffffff1673ffffffffffffffffffffffffffffffffffffffff1681526020019060010190808311610617575b5050505050905090565b60008054906101000a900473ffffffffffffffffffffffffffffffffffffffff1681565b6002339080600181540180825580915050600190039060005260206000200160009091909190916101000a81548173ffffffffffffffffffffffffffffffffffffffff021916908373ffffffffffffffffffffffffffffffffffffffff160217905550565b60015481565b60035481565b6060600060035467ffffffffffffffff8111156107205761071f610da9565b5b60405190808252806020026020018201604052801561074e5781602001602082028036833780820191505090505b50905060005b6003548110156107f2576005600082815260200190815260200160002060009054906101000a900473ffffffffffffffffffffffffffffffffffffffff168282815181106107a5576107a4610bf3565b5b602002602001019073ffffffffffffffffffffffffffffffffffffffff16908173ffffffffffffffffffffffffffffffffffffffff168152505080806107ea90610cce565b915050610754565b508091505090565b6002818154811061080a57600080fd5b906000526020600020016000915054906101000a900473ffffffffffffffffffffffffffffffffffffffff1681565b60008054906101000a900473ffffffffffffffffffffffffffffffffffffffff1673ffffffffffffffffffffffffffffffffffffffff163373ffffffffffffffffffffffffffffffffffffffff16146108c7576040517f08c379a00000000000000000000000000000000000000000000000000000000081526004016108be90610d89565b60405180910390fd5b806000806101000a81548173ffffffffffffffffffffffffffffffffffffffff021916908373ffffffffffffffffffffffffffffffffffffffff16021790555050565b60007f48656c6c6f20776f726c64000000000000000000000000000000000000000000905090565b600080fd5b600060ff82169050919050565b61094d81610937565b811461095857600080fd5b50565b60008135905061096a81610944565b92915050565b60006020828403121561098657610985610932565b5b60006109948482850161095b565b91505092915050565b600073ffffffffffffffffffffffffffffffffffffffff82169050919050565b60006109c88261099d565b9050919050565b6109d8816109bd565b82525050565b60006020820190506109f360008301846109cf565b92915050565b6000819050919050565b610a0c816109f9565b8114610a1757600080fd5b50565b600081359050610a2981610a03565b92915050565b600060208284031215610a4557610a44610932565b5b6000610a5384828501610a1a565b91505092915050565b600081519050919050565b600082825260208201905092915050565b6000819050602082019050919050565b610a91816109bd565b82525050565b6000610aa38383610a88565b60208301905092915050565b6000602082019050919050565b6000610ac782610a5c565b610ad18185610a67565b9350610adc83610a78565b8060005b83811015610b0d578151610af48882610a97565b9750610aff83610aaf565b925050600181019050610ae0565b5085935050505092915050565b60006020820190508181036000830152610b348184610abc565b905092915050565b610b45816109f9565b82525050565b6000602082019050610b606000830184610b3c565b92915050565b610b6f816109bd565b8114610b7a57600080fd5b50565b600081359050610b8c81610b66565b92915050565b600060208284031215610ba857610ba7610932565b5b6000610bb684828501610b7d565b91505092915050565b6000819050919050565b610bd281610bbf565b82525050565b6000602082019050610bed6000830184610bc9565b92915050565b7f4e487b7100000000000000000000000000000000000000000000000000000000600052603260045260246000fd5b600082825260208201905092915050565b7f43616e6e6f74207769746864726177206d6f7265207468616e20312065746800600082015250565b6000610c69601f83610c22565b9150610c7482610c33565b602082019050919050565b60006020820190508181036000830152610c9881610c5c565b9050919050565b7f4e487b7100000000000000000000000000000000000000000000000000000000600052601160045260246000fd5b6000610cd9826109f9565b91507fffffffffffffffffffffffffffffffffffffffffffffffffffffffffffffffff821415610d0c57610d0b610c9f565b5b600182019050919050565b7f4f6e6c79206f776e65722063616e2063616c6c20746869732066756e6374696f60008201527f6e00000000000000000000000000000000000000000000000000000000000000602082015250565b6000610d73602183610c22565b9150610d7e82610d17565b604082019050919050565b60006020820190508181036000830152610da281610d66565b9050919050565b7f4e487b7100000000000000000000000000000000000000000000000000000000600052604160045260246000fdfea26469706673582212200e728e66fa4c1fd4ac4b25fdb6ad95a42d2bb4e6e6c7ddecbf31001991140d9564736f6c634300080a0033",
  "immutableReferences": {},
  "source": "// SPDX-License-Identifier: MIT\npragma solidity >=0.4.22 <0.9.0;\n\nimport './Owned.sol';\nimport './Logger.sol';\nimport './IFaucet.sol';\n\ncontract Faucet is Owned, Logger, IFaucet {\n    address[] public funders;\n\n    uint256 public numOfFunders;\n    mapping(address => bool) private theFunders;\n    mapping(uint256 => address) private lutFunders;\n\n    modifier limitWithdraw(uint256 withdrawAmount) {\n        require(\n            withdrawAmount <= 1000000000000000000,\n            'Cannot withdraw more than 1 eth'\n        );\n        _;\n    }\n\n    receive() external payable {}\n\n    function test1() external onlyOwner {}\n\n    function emitLog() public pure override returns (bytes32) {\n        return 'Hello world';\n    }\n\n    function addFunds() public payable override {\n        funders.push(msg.sender);\n    }\n\n    function addFundsMapping() external payable {\n        address funder = msg.sender;\n\n        if (!theFunders[funder]) {\n            uint256 index = numOfFunders++;\n            theFunders[funder] = true;\n            lutFunders[index] = funder;\n        }\n    }\n\n    function getAllFunders() public view returns (address[] memory) {\n        return funders;\n    }\n\n    function getAllFundersMapping() public view returns (address[] memory) {\n        address[] memory _funders = new address[](numOfFunders);\n\n        for (uint256 i = 0; i < numOfFunders; i++) {\n            _funders[i] = lutFunders[i];\n        }\n\n        return _funders;\n    }\n\n    function getFunderAtIndex(uint8 index) external view returns (address) {\n        address[] memory _funders = getAllFunders();\n        return _funders[index];\n    }\n\n    function getFunderAtIndexMapping(uint8 index)\n        external\n        view\n        returns (address)\n    {\n        return lutFunders[index];\n    }\n\n    function withdraw(uint256 withdrawAmount)\n        external\n        override\n        limitWithdraw(withdrawAmount)\n    {\n        payable(msg.sender).transfer(withdrawAmount);\n    }\n}\n",
  "sourcePath": "/media/arthsan/Warehouse/projects/faucet/contracts/Faucet.sol",
  "compiler": {
    "name": "solc",
    "version": "0.8.10+commit.fc410830.Emscripten.clang"
  },
  "schemaVersion": "3.4.4",
  "updatedAt": "2021-12-24T15:12:11.041Z",
  "networkType": "ethereum",
  "devdoc": {
    "kind": "dev",
    "methods": {},
    "version": 1
  },
  "userdoc": {
    "kind": "user",
    "methods": {},
    "version": 1
  }
}