{
  "contractName": "Storage",
  "abi": [
    {
      "inputs": [],
      "stateMutability": "nonpayable",
      "type": "constructor"
    },
    {
      "inputs": [],
      "name": "a",
      "outputs": [
        {
          "internalType": "uint8",
          "name": "",
          "type": "uint8"
        }
      ],
      "stateMutability": "view",
      "type": "function",
      "constant": true
    },
    {
      "inputs": [
        {
          "internalType": "uint256",
          "name": "",
          "type": "uint256"
        }
      ],
      "name": "aa",
      "outputs": [
        {
          "internalType": "uint256",
          "name": "",
          "type": "uint256"
        }
      ],
      "stateMutability": "view",
      "type": "function",
      "constant": true
    },
    {
      "inputs": [],
      "name": "b",
      "outputs": [
        {
          "internalType": "uint16",
          "name": "",
          "type": "uint16"
        }
      ],
      "stateMutability": "view",
      "type": "function",
      "constant": true
    },
    {
      "inputs": [
        {
          "internalType": "address",
          "name": "",
          "type": "address"
        }
      ],
      "name": "bb",
      "outputs": [
        {
          "internalType": "uint256",
          "name": "",
          "type": "uint256"
        }
      ],
      "stateMutability": "view",
      "type": "function",
      "constant": true
    },
    {
      "inputs": [],
      "name": "c",
      "outputs": [
        {
          "internalType": "address",
          "name": "",
          "type": "address"
        }
      ],
      "stateMutability": "view",
      "type": "function",
      "constant": true
    },
    {
      "inputs": [],
      "name": "e",
      "outputs": [
        {
          "internalType": "uint64",
          "name": "",
          "type": "uint64"
        }
      ],
      "stateMutability": "view",
      "type": "function",
      "constant": true
    },
    {
      "inputs": [],
      "name": "f",
      "outputs": [
        {
          "internalType": "uint256",
          "name": "",
          "type": "uint256"
        }
      ],
      "stateMutability": "view",
      "type": "function",
      "constant": true
    },
    {
      "inputs": [],
      "name": "g",
      "outputs": [
        {
          "internalType": "uint8",
          "name": "",
          "type": "uint8"
        }
      ],
      "stateMutability": "view",
      "type": "function",
      "constant": true
    },
    {
      "inputs": [],
      "name": "h",
      "outputs": [
        {
          "internalType": "uint256",
          "name": "",
          "type": "uint256"
        }
      ],
      "stateMutability": "view",
      "type": "function",
      "constant": true
    }
  ],
  "bytecode": "0x60806040526007600260006101000a81548160ff021916908360ff160217905550600a600260016101000a81548161ffff021916908361ffff1602179055507359f3c2a5ffd77d928a519173de044f604ce1a5a3600260036101000a81548173ffffffffffffffffffffffffffffffffffffffff021916908373ffffffffffffffffffffffffffffffffffffffff1602179055506001600260176101000a81548160ff021916908315150217905550600f600260186101000a81548167ffffffffffffffff021916908367ffffffffffffffff16021790555060c86003556028600460006101000a81548160ff021916908360ff16021790555061031560055534801561010b57600080fd5b5060046000806002815260200190815260200160002081905550600a60008060038152602001908152602001600020819055506064600160007359f3c2a5ffd77d928a519173de044f604ce1a5a373ffffffffffffffffffffffffffffffffffffffff1673ffffffffffffffffffffffffffffffffffffffff168152602001908152602001600020819055506104aa806101a66000396000f3fe608060405234801561001057600080fd5b50600436106100935760003560e01c8063b8c9d36511610066578063b8c9d36514610122578063c3da42b814610140578063e1d9bbbd1461015e578063e2179b8e1461018e578063ffae15ba146101ac57610093565b80630dbe671f1461009857806326121ff0146100b65780634df7e3d0146100d45780637323febe146100f2575b600080fd5b6100a06101ca565b6040516100ad919061029c565b60405180910390f35b6100be6101dd565b6040516100cb91906102d0565b60405180910390f35b6100dc6101e3565b6040516100e99190610308565b60405180910390f35b61010c60048036038101906101079190610354565b6101f7565b60405161011991906102d0565b60405180910390f35b61012a61020f565b60405161013791906102d0565b60405180910390f35b610148610215565b60405161015591906103c2565b60405180910390f35b61017860048036038101906101739190610409565b61023b565b60405161018591906102d0565b60405180910390f35b610196610253565b6040516101a3919061029c565b60405180910390f35b6101b4610266565b6040516101c19190610459565b60405180910390f35b600260009054906101000a900460ff1681565b60035481565b600260019054906101000a900461ffff1681565b60006020528060005260406000206000915090505481565b60055481565b600260039054906101000a900473ffffffffffffffffffffffffffffffffffffffff1681565b60016020528060005260406000206000915090505481565b600460009054906101000a900460ff1681565b600260189054906101000a900467ffffffffffffffff1681565b600060ff82169050919050565b61029681610280565b82525050565b60006020820190506102b1600083018461028d565b92915050565b6000819050919050565b6102ca816102b7565b82525050565b60006020820190506102e560008301846102c1565b92915050565b600061ffff82169050919050565b610302816102eb565b82525050565b600060208201905061031d60008301846102f9565b92915050565b600080fd5b610331816102b7565b811461033c57600080fd5b50565b60008135905061034e81610328565b92915050565b60006020828403121561036a57610369610323565b5b60006103788482850161033f565b91505092915050565b600073ffffffffffffffffffffffffffffffffffffffff82169050919050565b60006103ac82610381565b9050919050565b6103bc816103a1565b82525050565b60006020820190506103d760008301846103b3565b92915050565b6103e6816103a1565b81146103f157600080fd5b50565b600081359050610403816103dd565b92915050565b60006020828403121561041f5761041e610323565b5b600061042d848285016103f4565b91505092915050565b600067ffffffffffffffff82169050919050565b61045381610436565b82525050565b600060208201905061046e600083018461044a565b9291505056fea2646970667358221220f101fd72a594cb3ec9fae0cf969b4c94c89adc309e46f96ecd8854776326edb764736f6c634300080a0033",
  "immutableReferences": {},
  "source": "// SPDX-License-Identifier: MIT\npragma solidity >=0.4.22 <0.9.0;\n\ncontract Storage {\n    mapping(uint256 => uint256) public aa;\n    mapping(address => uint256) public bb;\n\n    //slot 2\n    uint8 public a = 7;\n    uint16 public b = 10;\n    address public c = 0x59F3C2a5FFD77D928A519173de044F604cE1A5a3;\n    bool d = true;\n    uint64 public e = 15;\n\n    //slot 3\n    uint256 public f = 200;\n\n    //slot 4\n    uint8 public g = 40;\n\n    //slot 5\n    uint256 public h = 789;\n\n    constructor() {\n        aa[2] = 4;\n        aa[3] = 10;\n\n        bb[0x59F3C2a5FFD77D928A519173de044F604cE1A5a3] = 100;\n    }\n}\n",
  "sourcePath": "/media/arthsan/Warehouse/projects/faucet/contracts/Storage.sol",
  "compiler": {
    "name": "solc",
    "version": "0.8.10+commit.fc410830.Emscripten.clang"
  },
  "schemaVersion": "3.4.4",
  "updatedAt": "2021-12-24T15:12:11.379Z",
  "networkType": "ethereum",
  "devdoc": {
    "kind": "dev",
    "methods": {},
    "version": 1
  },
  "userdoc": {
    "kind": "user",
    "methods": {},
    "version": 1
  }
}